{"abi":[{"type":"constructor","inputs":[],"stateMutability":"nonpayable"},{"type":"function","name":"allowance","inputs":[{"name":"owner","type":"address","internalType":"address"},{"name":"spender","type":"address","internalType":"address"}],"outputs":[{"name":"","type":"uint256","internalType":"uint256"}],"stateMutability":"view"},{"type":"function","name":"approve","inputs":[{"name":"spender","type":"address","internalType":"address"},{"name":"value","type":"uint256","internalType":"uint256"}],"outputs":[{"name":"","type":"bool","internalType":"bool"}],"stateMutability":"nonpayable"},{"type":"function","name":"balanceOf","inputs":[{"name":"account","type":"address","internalType":"address"}],"outputs":[{"name":"","type":"uint256","internalType":"uint256"}],"stateMutability":"view"},{"type":"function","name":"decimals","inputs":[],"outputs":[{"name":"","type":"uint8","internalType":"uint8"}],"stateMutability":"view"},{"type":"function","name":"mint","inputs":[{"name":"to","type":"address","internalType":"address"},{"name":"amount","type":"uint256","internalType":"uint256"}],"outputs":[],"stateMutability":"nonpayable"},{"type":"function","name":"name","inputs":[],"outputs":[{"name":"","type":"string","internalType":"string"}],"stateMutability":"view"},{"type":"function","name":"symbol","inputs":[],"outputs":[{"name":"","type":"string","internalType":"string"}],"stateMutability":"view"},{"type":"function","name":"totalSupply","inputs":[],"outputs":[{"name":"","type":"uint256","internalType":"uint256"}],"stateMutability":"view"},{"type":"function","name":"transfer","inputs":[{"name":"to","type":"address","internalType":"address"},{"name":"value","type":"uint256","internalType":"uint256"}],"outputs":[{"name":"","type":"bool","internalType":"bool"}],"stateMutability":"nonpayable"},{"type":"function","name":"transferAndCall","inputs":[{"name":"to","type":"address","internalType":"address"},{"name":"value","type":"uint256","internalType":"uint256"},{"name":"data","type":"bytes","internalType":"bytes"}],"outputs":[{"name":"","type":"bool","internalType":"bool"}],"stateMutability":"nonpayable"},{"type":"function","name":"transferFrom","inputs":[{"name":"from","type":"address","internalType":"address"},{"name":"to","type":"address","internalType":"address"},{"name":"value","type":"uint256","internalType":"uint256"}],"outputs":[{"name":"","type":"bool","internalType":"bool"}],"stateMutability":"nonpayable"},{"type":"event","name":"Approval","inputs":[{"name":"owner","type":"address","indexed":true,"internalType":"address"},{"name":"spender","type":"address","indexed":true,"internalType":"address"},{"name":"value","type":"uint256","indexed":false,"internalType":"uint256"}],"anonymous":false},{"type":"event","name":"Transfer","inputs":[{"name":"from","type":"address","indexed":true,"internalType":"address"},{"name":"to","type":"address","indexed":true,"internalType":"address"},{"name":"value","type":"uint256","indexed":false,"internalType":"uint256"}],"anonymous":false},{"type":"error","name":"ERC20InsufficientAllowance","inputs":[{"name":"spender","type":"address","internalType":"address"},{"name":"allowance","type":"uint256","internalType":"uint256"},{"name":"needed","type":"uint256","internalType":"uint256"}]},{"type":"error","name":"ERC20InsufficientBalance","inputs":[{"name":"sender","type":"address","internalType":"address"},{"name":"balance","type":"uint256","internalType":"uint256"},{"name":"needed","type":"uint256","internalType":"uint256"}]},{"type":"error","name":"ERC20InvalidApprover","inputs":[{"name":"approver","type":"address","internalType":"address"}]},{"type":"error","name":"ERC20InvalidReceiver","inputs":[{"name":"receiver","type":"address","internalType":"address"}]},{"type":"error","name":"ERC20InvalidSender","inputs":[{"name":"sender","type":"address","internalType":"address"}]},{"type":"error","name":"ERC20InvalidSpender","inputs":[{"name":"spender","type":"address","internalType":"address"}]}],"bytecode":{"object":"0x608060405234801561000f575f80fd5b506040518060400160405280600a81526020016923b7b7b22237b63630b960b11b8152506040518060400160405280600281526020016111c960f21b815250816003908161005d919061010a565b50600461006a828261010a565b5050506101c9565b634e487b7160e01b5f52604160045260245ffd5b600181811c9082168061009a57607f821691505b6020821081036100b857634e487b7160e01b5f52602260045260245ffd5b50919050565b601f82111561010557805f5260205f20601f840160051c810160208510156100e35750805b601f840160051c820191505b81811015610102575f81556001016100ef565b50505b505050565b81516001600160401b0381111561012357610123610072565b610137816101318454610086565b846100be565b602080601f83116001811461016a575f84156101535750858301515b5f19600386901b1c1916600185901b1785556101c1565b5f85815260208120601f198616915b8281101561019857888601518255948401946001909101908401610179565b50858210156101b557878501515f19600388901b60f8161c191681555b505060018460011b0185555b505050505050565b61092a806101d65f395ff3fe608060405234801561000f575f80fd5b50600436106100a6575f3560e01c80634000aea01161006e5780634000aea01461011f57806340c10f191461013257806370a082311461014757806395d89b411461016f578063a9059cbb14610177578063dd62ed3e1461018a575f80fd5b806306fdde03146100aa578063095ea7b3146100c857806318160ddd146100eb57806323b872dd146100fd578063313ce56714610110575b5f80fd5b6100b26101c2565b6040516100bf919061069e565b60405180910390f35b6100db6100d6366004610705565b610252565b60405190151581526020016100bf565b6002545b6040519081526020016100bf565b6100db61010b36600461072d565b61026b565b604051601281526020016100bf565b6100db61012d366004610766565b61028e565b610145610140366004610705565b61035d565b005b6100ef6101553660046107e6565b6001600160a01b03165f9081526020819052604090205490565b6100b261036b565b6100db610185366004610705565b61037a565b6100ef610198366004610806565b6001600160a01b039182165f90815260016020908152604080832093909416825291909152205490565b6060600380546101d190610837565b80601f01602080910402602001604051908101604052809291908181526020018280546101fd90610837565b80156102485780601f1061021f57610100808354040283529160200191610248565b820191905f5260205f20905b81548152906001019060200180831161022b57829003601f168201915b5050505050905090565b5f3361025f818585610387565b60019150505b92915050565b5f33610278858285610399565b610283858585610415565b506001949350505050565b5f610299858561037a565b50604051635260769b60e11b81526001600160a01b0386169063a4c0ed36906102cc90339088908890889060040161086f565b6020604051808303815f875af11580156102e8573d5f803e3d5ffd5b505050506040513d601f19601f8201168201806040525081019061030c91906108b6565b6102835760405162461bcd60e51b815260206004820152601e60248201527f4552433637373a207472616e73666572416e6443616c6c206661696c6564000060448201526064015b60405180910390fd5b6103678282610472565b5050565b6060600480546101d190610837565b5f3361025f818585610415565b61039483838360016104a6565b505050565b6001600160a01b038381165f908152600160209081526040808320938616835292905220545f1981101561040f578181101561040157604051637dc7a0d960e11b81526001600160a01b03841660048201526024810182905260448101839052606401610354565b61040f84848484035f6104a6565b50505050565b6001600160a01b03831661043e57604051634b637e8f60e11b81525f6004820152602401610354565b6001600160a01b0382166104675760405163ec442f0560e01b81525f6004820152602401610354565b610394838383610578565b6001600160a01b03821661049b5760405163ec442f0560e01b81525f6004820152602401610354565b6103675f8383610578565b6001600160a01b0384166104cf5760405163e602df0560e01b81525f6004820152602401610354565b6001600160a01b0383166104f857604051634a1406b160e11b81525f6004820152602401610354565b6001600160a01b038085165f908152600160209081526040808320938716835292905220829055801561040f57826001600160a01b0316846001600160a01b03167f8c5be1e5ebec7d5bd14f71427d1e84f3dd0314c0f7b2291e5b200ac8c7c3b9258460405161056a91815260200190565b60405180910390a350505050565b6001600160a01b0383166105a2578060025f82825461059791906108d5565b909155506106129050565b6001600160a01b0383165f90815260208190526040902054818110156105f45760405163391434e360e21b81526001600160a01b03851660048201526024810182905260448101839052606401610354565b6001600160a01b0384165f9081526020819052604090209082900390555b6001600160a01b03821661062e5760028054829003905561064c565b6001600160a01b0382165f9081526020819052604090208054820190555b816001600160a01b0316836001600160a01b03167fddf252ad1be2c89b69c2b068fc378daa952ba7f163c4a11628f55a4df523b3ef8360405161069191815260200190565b60405180910390a3505050565b5f602080835283518060208501525f5b818110156106ca578581018301518582016040015282016106ae565b505f604082860101526040601f19601f8301168501019250505092915050565b80356001600160a01b0381168114610700575f80fd5b919050565b5f8060408385031215610716575f80fd5b61071f836106ea565b946020939093013593505050565b5f805f6060848603121561073f575f80fd5b610748846106ea565b9250610756602085016106ea565b9150604084013590509250925092565b5f805f8060608587031215610779575f80fd5b610782856106ea565b935060208501359250604085013567ffffffffffffffff808211156107a5575f80fd5b818701915087601f8301126107b8575f80fd5b8135818111156107c6575f80fd5b8860208285010111156107d7575f80fd5b95989497505060200194505050565b5f602082840312156107f6575f80fd5b6107ff826106ea565b9392505050565b5f8060408385031215610817575f80fd5b610820836106ea565b915061082e602084016106ea565b90509250929050565b600181811c9082168061084b57607f821691505b60208210810361086957634e487b7160e01b5f52602260045260245ffd5b50919050565b6001600160a01b0385168152602081018490526060604082018190528101829052818360808301375f818301608090810191909152601f909201601f191601019392505050565b5f602082840312156108c6575f80fd5b815180151581146107ff575f80fd5b8082018082111561026557634e487b7160e01b5f52601160045260245ffdfea264697066735822122072d11989fbfcc84c430a52253808414d04b8b0a20d92b319ffddd2651963601164736f6c63430008180033","linkReferences":{}},"methodIdentifiers":{"allowance(address,address)":"dd62ed3e","approve(address,uint256)":"095ea7b3","balanceOf(address)":"70a08231","decimals()":"313ce567","mint(address,uint256)":"40c10f19","name()":"06fdde03","symbol()":"95d89b41","totalSupply()":"18160ddd","transfer(address,uint256)":"a9059cbb","transferAndCall(address,uint256,bytes)":"4000aea0","transferFrom(address,address,uint256)":"23b872dd"},"id":27}