{"abi":[{"type":"constructor","inputs":[{"name":"_asset","type":"address","internalType":"address"},{"name":"_name","type":"string","internalType":"string"},{"name":"_symbol","type":"string","internalType":"string"},{"name":"_lockDuration","type":"uint256","internalType":"uint256"},{"name":"_globalCap","type":"uint256","internalType":"uint256"},{"name":"_userCap","type":"uint256","internalType":"uint256"}],"stateMutability":"nonpayable"},{"type":"function","name":"ADMIN_ROLE","inputs":[],"outputs":[{"name":"","type":"bytes32","internalType":"bytes32"}],"stateMutability":"view"},{"type":"function","name":"DEFAULT_ADMIN_ROLE","inputs":[],"outputs":[{"name":"","type":"bytes32","internalType":"bytes32"}],"stateMutability":"view"},{"type":"function","name":"allowance","inputs":[{"name":"owner","type":"address","internalType":"address"},{"name":"spender","type":"address","internalType":"address"}],"outputs":[{"name":"","type":"uint256","internalType":"uint256"}],"stateMutability":"view"},{"type":"function","name":"approve","inputs":[{"name":"spender","type":"address","internalType":"address"},{"name":"value","type":"uint256","internalType":"uint256"}],"outputs":[{"name":"","type":"bool","internalType":"bool"}],"stateMutability":"nonpayable"},{"type":"function","name":"asset","inputs":[],"outputs":[{"name":"","type":"address","internalType":"address"}],"stateMutability":"view"},{"type":"function","name":"balanceOf","inputs":[{"name":"account","type":"address","internalType":"address"}],"outputs":[{"name":"","type":"uint256","internalType":"uint256"}],"stateMutability":"view"},{"type":"function","name":"claimableRedeemRequest","inputs":[{"name":"controller","type":"address","internalType":"address"}],"outputs":[{"name":"shares","type":"uint256","internalType":"uint256"}],"stateMutability":"view"},{"type":"function","name":"convertToAssets","inputs":[{"name":"shares","type":"uint256","internalType":"uint256"}],"outputs":[{"name":"","type":"uint256","internalType":"uint256"}],"stateMutability":"view"},{"type":"function","name":"convertToShares","inputs":[{"name":"assets","type":"uint256","internalType":"uint256"}],"outputs":[{"name":"","type":"uint256","internalType":"uint256"}],"stateMutability":"view"},{"type":"function","name":"decimals","inputs":[],"outputs":[{"name":"","type":"uint8","internalType":"uint8"}],"stateMutability":"view"},{"type":"function","name":"deposit","inputs":[{"name":"assets","type":"uint256","internalType":"uint256"},{"name":"receiver","type":"address","internalType":"address"}],"outputs":[{"name":"","type":"uint256","internalType":"uint256"}],"stateMutability":"nonpayable"},{"type":"function","name":"earlyWithdraw","inputs":[],"outputs":[{"name":"","type":"uint256","internalType":"uint256"}],"stateMutability":"nonpayable"},{"type":"function","name":"getRoleAdmin","inputs":[{"name":"role","type":"bytes32","internalType":"bytes32"}],"outputs":[{"name":"","type":"bytes32","internalType":"bytes32"}],"stateMutability":"view"},{"type":"function","name":"globalDepositCap","inputs":[],"outputs":[{"name":"","type":"uint256","internalType":"uint256"}],"stateMutability":"view"},{"type":"function","name":"grantRole","inputs":[{"name":"role","type":"bytes32","internalType":"bytes32"},{"name":"account","type":"address","internalType":"address"}],"outputs":[],"stateMutability":"nonpayable"},{"type":"function","name":"hasRole","inputs":[{"name":"role","type":"bytes32","internalType":"bytes32"},{"name":"account","type":"address","internalType":"address"}],"outputs":[{"name":"","type":"bool","internalType":"bool"}],"stateMutability":"view"},{"type":"function","name":"lockDuration","inputs":[],"outputs":[{"name":"","type":"uint256","internalType":"uint256"}],"stateMutability":"view"},{"type":"function","name":"maxDeposit","inputs":[{"name":"","type":"address","internalType":"address"}],"outputs":[{"name":"","type":"uint256","internalType":"uint256"}],"stateMutability":"view"},{"type":"function","name":"maxMint","inputs":[{"name":"","type":"address","internalType":"address"}],"outputs":[{"name":"","type":"uint256","internalType":"uint256"}],"stateMutability":"view"},{"type":"function","name":"maxRedeem","inputs":[{"name":"owner","type":"address","internalType":"address"}],"outputs":[{"name":"","type":"uint256","internalType":"uint256"}],"stateMutability":"view"},{"type":"function","name":"maxWithdraw","inputs":[{"name":"owner","type":"address","internalType":"address"}],"outputs":[{"name":"","type":"uint256","internalType":"uint256"}],"stateMutability":"view"},{"type":"function","name":"mint","inputs":[{"name":"","type":"uint256","internalType":"uint256"},{"name":"","type":"address","internalType":"address"}],"outputs":[{"name":"","type":"uint256","internalType":"uint256"}],"stateMutability":"nonpayable"},{"type":"function","name":"name","inputs":[],"outputs":[{"name":"","type":"string","internalType":"string"}],"stateMutability":"view"},{"type":"function","name":"onTokenTransfer","inputs":[{"name":"sender","type":"address","internalType":"address"},{"name":"value","type":"uint256","internalType":"uint256"},{"name":"","type":"bytes","internalType":"bytes"}],"outputs":[{"name":"","type":"bool","internalType":"bool"}],"stateMutability":"nonpayable"},{"type":"function","name":"paused","inputs":[],"outputs":[{"name":"","type":"bool","internalType":"bool"}],"stateMutability":"view"},{"type":"function","name":"pendingRedeemRequest","inputs":[{"name":"controller","type":"address","internalType":"address"}],"outputs":[{"name":"shares","type":"uint256","internalType":"uint256"}],"stateMutability":"view"},{"type":"function","name":"previewDeposit","inputs":[{"name":"assets","type":"uint256","internalType":"uint256"}],"outputs":[{"name":"","type":"uint256","internalType":"uint256"}],"stateMutability":"view"},{"type":"function","name":"previewMint","inputs":[{"name":"shares","type":"uint256","internalType":"uint256"}],"outputs":[{"name":"","type":"uint256","internalType":"uint256"}],"stateMutability":"view"},{"type":"function","name":"previewRedeem","inputs":[{"name":"shares","type":"uint256","internalType":"uint256"}],"outputs":[{"name":"","type":"uint256","internalType":"uint256"}],"stateMutability":"view"},{"type":"function","name":"previewWithdraw","inputs":[{"name":"assets","type":"uint256","internalType":"uint256"}],"outputs":[{"name":"","type":"uint256","internalType":"uint256"}],"stateMutability":"view"},{"type":"function","name":"pullYield","inputs":[],"outputs":[],"stateMutability":"nonpayable"},{"type":"function","name":"redeem","inputs":[{"name":"shares","type":"uint256","internalType":"uint256"},{"name":"receiver","type":"address","internalType":"address"},{"name":"owner","type":"address","internalType":"address"}],"outputs":[{"name":"","type":"uint256","internalType":"uint256"}],"stateMutability":"nonpayable"},{"type":"function","name":"redeemRequests","inputs":[{"name":"","type":"address","internalType":"address"}],"outputs":[{"name":"shares","type":"uint256","internalType":"uint256"},{"name":"maturity","type":"uint256","internalType":"uint256"}],"stateMutability":"view"},{"type":"function","name":"renounceRole","inputs":[{"name":"role","type":"bytes32","internalType":"bytes32"},{"name":"callerConfirmation","type":"address","internalType":"address"}],"outputs":[],"stateMutability":"nonpayable"},{"type":"function","name":"requestRedeem","inputs":[{"name":"shares","type":"uint256","internalType":"uint256"},{"name":"controller","type":"address","internalType":"address"},{"name":"owner","type":"address","internalType":"address"}],"outputs":[{"name":"requestId","type":"uint256","internalType":"uint256"}],"stateMutability":"nonpayable"},{"type":"function","name":"revokeRole","inputs":[{"name":"role","type":"bytes32","internalType":"bytes32"},{"name":"account","type":"address","internalType":"address"}],"outputs":[],"stateMutability":"nonpayable"},{"type":"function","name":"setCaps","inputs":[{"name":"_globalCap","type":"uint256","internalType":"uint256"},{"name":"_userCap","type":"uint256","internalType":"uint256"}],"outputs":[],"stateMutability":"nonpayable"},{"type":"function","name":"setYieldStream","inputs":[{"name":"_stream","type":"address","internalType":"address"}],"outputs":[],"stateMutability":"nonpayable"},{"type":"function","name":"supportsInterface","inputs":[{"name":"interfaceId","type":"bytes4","internalType":"bytes4"}],"outputs":[{"name":"","type":"bool","internalType":"bool"}],"stateMutability":"view"},{"type":"function","name":"symbol","inputs":[],"outputs":[{"name":"","type":"string","internalType":"string"}],"stateMutability":"view"},{"type":"function","name":"totalAssets","inputs":[],"outputs":[{"name":"","type":"uint256","internalType":"uint256"}],"stateMutability":"view"},{"type":"function","name":"totalSupply","inputs":[],"outputs":[{"name":"","type":"uint256","internalType":"uint256"}],"stateMutability":"view"},{"type":"function","name":"transfer","inputs":[{"name":"to","type":"address","internalType":"address"},{"name":"value","type":"uint256","internalType":"uint256"}],"outputs":[{"name":"","type":"bool","internalType":"bool"}],"stateMutability":"nonpayable"},{"type":"function","name":"transferFrom","inputs":[{"name":"from","type":"address","internalType":"address"},{"name":"to","type":"address","internalType":"address"},{"name":"value","type":"uint256","internalType":"uint256"}],"outputs":[{"name":"","type":"bool","internalType":"bool"}],"stateMutability":"nonpayable"},{"type":"function","name":"userDepositCap","inputs":[],"outputs":[{"name":"","type":"uint256","internalType":"uint256"}],"stateMutability":"view"},{"type":"function","name":"userInfos","inputs":[{"name":"","type":"address","internalType":"address"}],"outputs":[{"name":"lockedUntil","type":"uint256","internalType":"uint256"},{"name":"principalAssets","type":"uint256","internalType":"uint256"},{"name":"shares","type":"uint256","internalType":"uint256"}],"stateMutability":"view"},{"type":"function","name":"withdraw","inputs":[{"name":"","type":"uint256","internalType":"uint256"},{"name":"","type":"address","internalType":"address"},{"name":"","type":"address","internalType":"address"}],"outputs":[{"name":"","type":"uint256","internalType":"uint256"}],"stateMutability":"nonpayable"},{"type":"function","name":"yieldStream","inputs":[],"outputs":[{"name":"","type":"address","internalType":"contract GoodSaveStream"}],"stateMutability":"view"},{"type":"event","name":"Approval","inputs":[{"name":"owner","type":"address","indexed":true,"internalType":"address"},{"name":"spender","type":"address","indexed":true,"internalType":"address"},{"name":"value","type":"uint256","indexed":false,"internalType":"uint256"}],"anonymous":false},{"type":"event","name":"Deposit","inputs":[{"name":"sender","type":"address","indexed":true,"internalType":"address"},{"name":"owner","type":"address","indexed":true,"internalType":"address"},{"name":"assets","type":"uint256","indexed":false,"internalType":"uint256"},{"name":"shares","type":"uint256","indexed":false,"internalType":"uint256"}],"anonymous":false},{"type":"event","name":"EarlyWithdrawal","inputs":[{"name":"user","type":"address","indexed":true,"internalType":"address"},{"name":"assetsReturned","type":"uint256","indexed":false,"internalType":"uint256"},{"name":"yieldForfeited","type":"uint256","indexed":false,"internalType":"uint256"}],"anonymous":false},{"type":"event","name":"Paused","inputs":[{"name":"account","type":"address","indexed":false,"internalType":"address"}],"anonymous":false},{"type":"event","name":"RedeemRequest","inputs":[{"name":"controller","type":"address","indexed":true,"internalType":"address"},{"name":"owner","type":"address","indexed":true,"internalType":"address"},{"name":"requestId","type":"uint256","indexed":false,"internalType":"uint256"},{"name":"sender","type":"address","indexed":false,"internalType":"address"},{"name":"shares","type":"uint256","indexed":false,"internalType":"uint256"}],"anonymous":false},{"type":"event","name":"RoleAdminChanged","inputs":[{"name":"role","type":"bytes32","indexed":true,"internalType":"bytes32"},{"name":"previousAdminRole","type":"bytes32","indexed":true,"internalType":"bytes32"},{"name":"newAdminRole","type":"bytes32","indexed":true,"internalType":"bytes32"}],"anonymous":false},{"type":"event","name":"RoleGranted","inputs":[{"name":"role","type":"bytes32","indexed":true,"internalType":"bytes32"},{"name":"account","type":"address","indexed":true,"internalType":"address"},{"name":"sender","type":"address","indexed":true,"internalType":"address"}],"anonymous":false},{"type":"event","name":"RoleRevoked","inputs":[{"name":"role","type":"bytes32","indexed":true,"internalType":"bytes32"},{"name":"account","type":"address","indexed":true,"internalType":"address"},{"name":"sender","type":"address","indexed":true,"internalType":"address"}],"anonymous":false},{"type":"event","name":"Transfer","inputs":[{"name":"from","type":"address","indexed":true,"internalType":"address"},{"name":"to","type":"address","indexed":true,"internalType":"address"},{"name":"value","type":"uint256","indexed":false,"internalType":"uint256"}],"anonymous":false},{"type":"event","name":"Unpaused","inputs":[{"name":"account","type":"address","indexed":false,"internalType":"address"}],"anonymous":false},{"type":"event","name":"Withdraw","inputs":[{"name":"sender","type":"address","indexed":true,"internalType":"address"},{"name":"receiver","type":"address","indexed":true,"internalType":"address"},{"name":"owner","type":"address","indexed":true,"internalType":"address"},{"name":"assets","type":"uint256","indexed":false,"internalType":"uint256"},{"name":"shares","type":"uint256","indexed":false,"internalType":"uint256"}],"anonymous":false},{"type":"event","name":"YieldStreamUpdated","inputs":[{"name":"streamAddress","type":"address","indexed":true,"internalType":"address"}],"anonymous":false},{"type":"error","name":"AccessControlBadConfirmation","inputs":[]},{"type":"error","name":"AccessControlUnauthorizedAccount","inputs":[{"name":"account","type":"address","internalType":"address"},{"name":"neededRole","type":"bytes32","internalType":"bytes32"}]},{"type":"error","name":"ERC20InsufficientAllowance","inputs":[{"name":"spender","type":"address","internalType":"address"},{"name":"allowance","type":"uint256","internalType":"uint256"},{"name":"needed","type":"uint256","internalType":"uint256"}]},{"type":"error","name":"ERC20InsufficientBalance","inputs":[{"name":"sender","type":"address","internalType":"address"},{"name":"balance","type":"uint256","internalType":"uint256"},{"name":"needed","type":"uint256","internalType":"uint256"}]},{"type":"error","name":"ERC20InvalidApprover","inputs":[{"name":"approver","type":"address","internalType":"address"}]},{"type":"error","name":"ERC20InvalidReceiver","inputs":[{"name":"receiver","type":"address","internalType":"address"}]},{"type":"error","name":"ERC20InvalidSender","inputs":[{"name":"sender","type":"address","internalType":"address"}]},{"type":"error","name":"ERC20InvalidSpender","inputs":[{"name":"spender","type":"address","internalType":"address"}]},{"type":"error","name":"ERC4626ExceededMaxDeposit","inputs":[{"name":"receiver","type":"address","internalType":"address"},{"name":"assets","type":"uint256","internalType":"uint256"},{"name":"max","type":"uint256","internalType":"uint256"}]},{"type":"error","name":"ERC4626ExceededMaxMint","inputs":[{"name":"receiver","type":"address","internalType":"address"},{"name":"shares","type":"uint256","internalType":"uint256"},{"name":"max","type":"uint256","internalType":"uint256"}]},{"type":"error","name":"ERC4626ExceededMaxRedeem","inputs":[{"name":"owner","type":"address","internalType":"address"},{"name":"shares","type":"uint256","internalType":"uint256"},{"name":"max","type":"uint256","internalType":"uint256"}]},{"type":"error","name":"ERC4626ExceededMaxWithdraw","inputs":[{"name":"owner","type":"address","internalType":"address"},{"name":"assets","type":"uint256","internalType":"uint256"},{"name":"max","type":"uint256","internalType":"uint256"}]},{"type":"error","name":"EnforcedPause","inputs":[]},{"type":"error","name":"ExpectedPause","inputs":[]},{"type":"error","name":"ReentrancyGuardReentrantCall","inputs":[]},{"type":"error","name":"SafeERC20FailedOperation","inputs":[{"name":"token","type":"address","internalType":"address"}]}],"bytecode":{"object":"0x60e06040526001600d5534801562000015575f80fd5b506040516200282938038062002829833981016040819052620000389162000318565b858585600362000049838262000441565b50600462000058828262000441565b5050505f806200006e83620000c360201b60201c565b91509150816200008057601262000082565b805b60ff1660a05250506001600160a01b0316608052600160075560c083905260088290556009819055620000b65f33620001a2565b5050505050505062000542565b60408051600481526024810182526020810180516001600160e01b031663313ce56760e01b17905290515f918291829182916001600160a01b038716916200010b916200050d565b5f60405180830381855afa9150503d805f811462000145576040519150601f19603f3d011682016040523d82523d5f602084013e6200014a565b606091505b50915091508180156200015f57506020815110155b1562000196575f818060200190518101906200017c91906200052a565b905060ff811162000194576001969095509350505050565b505b505f9485945092505050565b5f8281526005602090815260408083206001600160a01b038516845290915281205460ff1662000249575f8381526005602090815260408083206001600160a01b03861684529091529020805460ff19166001179055620002003390565b6001600160a01b0316826001600160a01b0316847f2f8788117e7eff1d82e926ec794901d17c78024a50270940304540a733656f0d60405160405180910390a45060016200024c565b505f5b92915050565b634e487b7160e01b5f52604160045260245ffd5b5f5b838110156200028257818101518382015260200162000268565b50505f910152565b5f82601f8301126200029a575f80fd5b81516001600160401b0380821115620002b757620002b762000252565b604051601f8301601f19908116603f01168101908282118183101715620002e257620002e262000252565b81604052838152866020858801011115620002fb575f80fd5b6200030e84602083016020890162000266565b9695505050505050565b5f805f805f8060c087890312156200032e575f80fd5b86516001600160a01b038116811462000345575f80fd5b60208801519096506001600160401b038082111562000362575f80fd5b620003708a838b016200028a565b9650604089015191508082111562000386575f80fd5b506200039589828a016200028a565b945050606087015192506080870151915060a087015190509295509295509295565b600181811c90821680620003cc57607f821691505b602082108103620003eb57634e487b7160e01b5f52602260045260245ffd5b50919050565b601f8211156200043c57805f5260205f20601f840160051c81016020851015620004185750805b601f840160051c820191505b8181101562000439575f815560010162000424565b50505b505050565b81516001600160401b038111156200045d576200045d62000252565b62000475816200046e8454620003b7565b84620003f1565b602080601f831160018114620004ab575f8415620004935750858301515b5f19600386901b1c1916600185901b17855562000505565b5f85815260208120601f198616915b82811015620004db57888601518255948401946001909101908401620004ba565b5085821015620004f957878501515f19600388901b60f8161c191681555b505060018460011b0185555b505050505050565b5f82516200052081846020870162000266565b9190910192915050565b5f602082840312156200053b575f80fd5b5051919050565b60805160a05160c05161228b6200059e5f395f81816102f001528181610ce001526110a401525f610aa401525f8181610404015281816106ec0152818161091e01528181610f0801528181611a3b0152611bc9015261228b5ff3fe608060405234801561000f575f80fd5b5060043610610296575f3560e01c806370a0823111610161578063b3d7f6b9116100ca578063ce96cb7711610084578063ce96cb771461061f578063d547741f14610632578063d905777e14610645578063dd62ed3e14610658578063dd99dde914610690578063ef8b30f7146105f9575f80fd5b8063b3d7f6b9146105ac578063b460af94146105bf578063ba087652146105d2578063c63d75b6146105e5578063c6e6f592146105f9578063c9f8aff11461060c575f80fd5b806394bf804d1161011b57806394bf804d1461056257806395d89b4114610575578063a217fddf146104f1578063a4c0ed361461057d578063a8a9c26014610590578063a9059cbb14610599575f80fd5b806370a08231146104c957806375b238fc146104f15780637d41c86e146104f85780637fd347971461050b5780638d158c2a1461051457806391d148541461054f575f80fd5b8063248a9ca311610203578063402d267d116101bd578063402d267d1461043c57806343b0215f1461044f5780634cdad5061461032757806353dc1dd3146104985780635c975abb146104ab5780636e553f65146104b6575f80fd5b8063248a9ca31461039857806327774852146103ba5780632f2ff15d146103c2578063313ce567146103d557806336568abe146103ef57806338d52e0f14610402575f80fd5b8063095ea7b311610254578063095ea7b31461033a5780630a28a4771461034d57806315d74bb31461036057806318160ddd14610368578063212bf3161461037057806323b872dd14610385575f80fd5b806288d3e51461029a57806301e1d114146102c057806301ffc9a7146102c857806304554443146102eb57806306fdde031461031257806307a2d13a14610327575b5f80fd5b6102ad6102a8366004611dea565b6106a3565b6040519081526020015b60405180910390f35b6102ad6106e9565b6102db6102d6366004611e03565b610778565b60405190151581526020016102b7565b6102ad7f000000000000000000000000000000000000000000000000000000000000000081565b61031a6107ae565b6040516102b79190611e2a565b6102ad610335366004611e76565b61083e565b6102db610348366004611e8d565b610849565b6102ad61035b366004611e76565b610860565b6102ad61086c565b6002546102ad565b61038361037e366004611eb5565b6109ae565b005b6102db610393366004611ed5565b6109c4565b6102ad6103a6366004611e76565b5f9081526005602052604090206001015490565b6103836109e9565b6103836103d0366004611f0e565b610a73565b6103dd610a9d565b60405160ff90911681526020016102b7565b6103836103fd366004611f0e565b610ac8565b7f00000000000000000000000000000000000000000000000000000000000000005b6040516001600160a01b0390911681526020016102b7565b6102ad61044a366004611dea565b610b00565b61047d61045d366004611dea565b600b6020525f908152604090208054600182015460029092015490919083565b604080519384526020840192909252908201526060016102b7565b6102ad6104a6366004611dea565b610b43565b60065460ff166102db565b6102ad6104c4366004611f0e565b610b82565b6102ad6104d7366004611dea565b6001600160a01b03165f9081526020819052604090205490565b6102ad5f81565b6102ad610506366004611f38565b610d14565b6102ad60085481565b61053a610522366004611dea565b600c6020525f90815260409020805460019091015482565b604080519283526020830191909152016102b7565b6102db61055d366004611f0e565b610e81565b6102ad610570366004611f0e565b610eab565b61031a610ee5565b6102db61058b366004611f71565b610ef4565b6102ad60095481565b6102db6105a7366004611e8d565b61112a565b6102ad6105ba366004611e76565b611137565b6102ad6105cd366004611f38565b611143565b6102ad6105e0366004611f38565b61118d565b6102ad6105f3366004611dea565b505f1990565b6102ad610607366004611e76565b611376565b600a54610424906001600160a01b031681565b6102ad61062d366004611dea565b611381565b610383610640366004611f0e565b6113a3565b6102ad610653366004611dea565b6113c7565b6102ad610666366004611ff1565b6001600160a01b039182165f90815260016020908152604080832093909416825291909152205490565b61038361069e366004611dea565b6113e4565b6001600160a01b0381165f908152600c60209081526040808320815180830190925280548252600101549181018290529042106106e1575192915050565b505f92915050565b5f7f00000000000000000000000000000000000000000000000000000000000000006040516370a0823160e01b81523060048201526001600160a01b0391909116906370a0823190602401602060405180830381865afa15801561074f573d5f803e3d5ffd5b505050506040513d601f19601f820116820180604052508101906107739190612019565b905090565b5f6001600160e01b03198216637965db0b60e01b14806107a857506301ffc9a760e01b6001600160e01b03198316145b92915050565b6060600380546107bd90612030565b80601f01602080910402602001604051908101604052809291908181526020018280546107e990612030565b80156108345780601f1061080b57610100808354040283529160200191610834565b820191905f5260205f20905b81548152906001019060200180831161081757829003601f168201915b5050505050905090565b5f6107a8825f611438565b5f33610856818585611470565b5060019392505050565b5f6107a882600161147d565b5f6108756114ac565b335f818152600b6020526040902060028101546108c55760405162461bcd60e51b81526020600482015260096024820152684e6f2073686172657360b81b60448201526064015b60405180910390fd5b6108cd6109e9565b600281015460018201545f6108e18361083e565b90505f8282116108f157816108f3565b825b90505f838311610903575f61090d565b61090d848461207c565b905061091987866114d6565b6109447f0000000000000000000000000000000000000000000000000000000000000000888461150e565b5f6001870181905560028701819055865560408051838152602081018390526001600160a01b038916917f1670585e36568ede58d159518ce92cad99f75ad41c7d8281df3dd4eaa0c855d0910160405180910390a250955050505050506109ab6001600755565b90565b5f6109b88161156d565b50600891909155600955565b5f336109d1858285611577565b6109dc8585856115da565b60019150505b9392505050565b600a546001600160a01b031615610a7157600a5f9054906101000a90046001600160a01b03166001600160a01b031663406cf2296040518163ffffffff1660e01b81526004016020604051808303815f875af1158015610a4b573d5f803e3d5ffd5b505050506040513d601f19601f82011682018060405250810190610a6f9190612019565b505b565b5f82815260056020526040902060010154610a8d8161156d565b610a978383611637565b50505050565b5f610773817f000000000000000000000000000000000000000000000000000000000000000061208f565b6001600160a01b0381163314610af15760405163334bd91960e11b815260040160405180910390fd5b610afb82826116c8565b505050565b5f610b0d60065460ff1690565b15610b1957505f919050565b5f610b226106e9565b90506008548110610b3557505f92915050565b806008546109e2919061207c565b6001600160a01b0381165f908152600c6020908152604080832081518083019092528054825260010154918101829052904210156106e1575192915050565b5f610b8b6114ac565b6001600160a01b0382163314610bdb5760405162461bcd60e51b815260206004820152601560248201527426bab9ba103232b837b9b4ba103337b91039b2b63360591b60448201526064016108bc565b610be482610b00565b831115610c285760405162461bcd60e51b815260206004820152601260248201527104578636565647320676c6f62616c206361760741b60448201526064016108bc565b610c306109e9565b6001600160a01b0382165f908152600b602052604090206009546001820154610c5a9086906120a8565b1115610c9b5760405162461bcd60e51b815260206004820152601060248201526f0457863656564732075736572206361760841b60448201526064016108bc565b5f610ca68585611733565b905084826001015f828254610cbb91906120a8565b9250508190555080826002015f828254610cd591906120a8565b90915550610d0590507f0000000000000000000000000000000000000000000000000000000000000000426120a8565b90915590506107a86001600755565b5f816001600160a01b0316836001600160a01b0316148015610d3e5750336001600160a01b038316145b610d7a5760405162461bcd60e51b815260206004820152600d60248201526c26bab9ba1031329037bbb732b960991b60448201526064016108bc565b6001600160a01b0382165f908152600b602052604090206002810154851115610ddb5760405162461bcd60e51b8152602060048201526013602482015272496e73756666696369656e742073686172657360681b60448201526064016108bc565b6001600160a01b0383165f908152600c60205260408120805490918791839190610e069084906120a8565b909155505081546001820155600d8054905f610e21836120bb565b90915550604080518281523360208201529081018890529093506001600160a01b0380861691908716907f1fdc681a13d8c5da54e301c7ce6542dcde4581e4725043fdab2db12ddc5745069060600160405180910390a350509392505050565b5f9182526005602090815260408084206001600160a01b0393909316845291905290205460ff1690565b60405162461bcd60e51b815260206004820152600d60248201526c557365206465706f736974282960981b60448201525f906064016108bc565b6060600480546107bd90612030565b5f610efd6114ac565b336001600160a01b037f00000000000000000000000000000000000000000000000000000000000000001614610f685760405162461bcd60e51b815260206004820152601060248201526f27b7363c9030b9b9b2ba103a37b5b2b760811b60448201526064016108bc565b610f7185610b00565b841115610fb55760405162461bcd60e51b815260206004820152601260248201527104578636565647320676c6f62616c206361760741b60448201526064016108bc565b610fbd6109e9565b6001600160a01b0385165f908152600b602052604090206009546001820154610fe79087906120a8565b11156110285760405162461bcd60e51b815260206004820152601060248201526f0457863656564732075736572206361760841b60448201526064016108bc565b5f856110326106e9565b61103c919061207c565b90505f811561105e576110598761105260025490565b845f61177f565b611060565b865b905061106c88826117ca565b86836001015f82825461107f91906120a8565b9250508190555080836002015f82825461109991906120a8565b909155506110c990507f0000000000000000000000000000000000000000000000000000000000000000426120a8565b835560408051888152602081018390526001600160a01b038a169182917fdcbc1c05240f31ff3ad067ef1ee35ce4997762752e3a095284754544f4c709d7910160405180910390a3600193505050506111226001600755565b949350505050565b5f336108568185856115da565b5f6107a8826001611438565b60405162461bcd60e51b815260206004820152601f60248201527f5573652072656465656d2829206f72206561726c79576974686472617728290060448201525f906064016108bc565b5f6111966114ac565b816001600160a01b0316836001600160a01b0316146111f05760405162461bcd60e51b81526020600482015260166024820152752932b1b2b4bb32b91036bab9ba1031329037bbb732b960511b60448201526064016108bc565b336001600160a01b0383161461123f5760405162461bcd60e51b815260206004820152601460248201527329b2b73232b91036bab9ba1031329037bbb732b960611b60448201526064016108bc565b6001600160a01b0382165f908152600b6020526040902080544210156112b35760405162461bcd60e51b8152602060048201526024808201527f5661756c74206973206c6f636b65642e20557365206561726c795769746864726044820152636177282960e01b60648201526084016108bc565b84816002015410156112fd5760405162461bcd60e51b8152602060048201526013602482015272496e73756666696369656e742073686172657360681b60448201526064016108bc565b6113056109e9565b5f6113118686866117fe565b90505f826002015487846001015461132991906120d3565b61133391906120fe565b905080836001015f828254611348919061207c565b9250508190555086836002015f828254611362919061207c565b909155509193505050506109e26001600755565b5f6107a8825f61147d565b6001600160a01b0381165f908152602081905260408120546107a8905f611438565b5f828152600560205260409020600101546113bd8161156d565b610a9783836116c8565b6001600160a01b0381165f908152602081905260408120546107a8565b5f6113ee8161156d565b600a80546001600160a01b0319166001600160a01b0384169081179091556040517f0e3c9ac4af696931a80fe935c0e1068ebb08d0ccd2cd380f245262fded61a078905f90a25050565b5f6109e26114446106e9565b61144f9060016120a8565b61145a5f600a6121f1565b60025461146791906120a8565b8591908561177f565b610afb838383600161184b565b5f6109e261148c82600a6121f1565b60025461149991906120a8565b6114a16106e9565b6114679060016120a8565b6002600754036114cf57604051633ee5aeb560e01b815260040160405180910390fd5b6002600755565b6001600160a01b0382166114ff57604051634b637e8f60e11b81525f60048201526024016108bc565b61150a825f8361191d565b5050565b6040516001600160a01b03838116602483015260448201839052610afb91859182169063a9059cbb906064015b604051602081830303815290604052915060e01b6020820180516001600160e01b038381831617835250505050611991565b610a6f81336119fd565b6001600160a01b038381165f908152600160209081526040808320938616835292905220545f19811015610a9757818110156115cc57828183604051637dc7a0d960e11b81526004016108bc939291906121ff565b610a9784848484035f61184b565b6001600160a01b03831661160357604051634b637e8f60e11b81525f60048201526024016108bc565b6001600160a01b03821661162c5760405163ec442f0560e01b81525f60048201526024016108bc565b610afb83838361191d565b5f6116428383610e81565b6116c1575f8381526005602090815260408083206001600160a01b03861684529091529020805460ff191660011790556116793390565b6001600160a01b0316826001600160a01b0316847f2f8788117e7eff1d82e926ec794901d17c78024a50270940304540a733656f0d60405160405180910390a45060016107a8565b505f6107a8565b5f6116d38383610e81565b156116c1575f8381526005602090815260408083206001600160a01b0386168085529252808320805460ff1916905551339286917ff6391f5c32d9c69d2a47ea670b442974b53935d1edc7fd64eb21e047a839171b9190a45060016107a8565b5f8061173e83610b00565b90508084111561176757828482604051633c8097d960e11b81526004016108bc939291906121ff565b5f61177185611376565b905061112233858784611a36565b5f6117ac61178c83611aba565b80156117a757505f84806117a2576117a26120ea565b868809115b151590565b6117b7868686611ae6565b6117c191906120a8565b95945050505050565b6001600160a01b0382166117f35760405163ec442f0560e01b81525f60048201526024016108bc565b61150a5f838361191d565b5f80611809836113c7565b90508085111561183257828582604051632e52afbb60e21b81526004016108bc939291906121ff565b5f61183c8661083e565b90506117c1338686848a611b96565b6001600160a01b0384166118745760405163e602df0560e01b81525f60048201526024016108bc565b6001600160a01b03831661189d57604051634a1406b160e11b81525f60048201526024016108bc565b6001600160a01b038085165f9081526001602090815260408083209387168352929052208290558015610a9757826001600160a01b0316846001600160a01b03167f8c5be1e5ebec7d5bd14f71427d1e84f3dd0314c0f7b2291e5b200ac8c7c3b9258460405161190f91815260200190565b60405180910390a350505050565b6001600160a01b038316158061193a57506001600160a01b038216155b6119865760405162461bcd60e51b815260206004820152601b60248201527f53686172657320617265206e6f6e2d7472616e7366657261626c65000000000060448201526064016108bc565b610afb838383611c56565b5f8060205f8451602086015f885af1806119b0576040513d5f823e3d81fd5b50505f513d915081156119c75780600114156119d4565b6001600160a01b0384163b155b15610a9757604051635274afe760e01b81526001600160a01b03851660048201526024016108bc565b611a078282610e81565b61150a5760405163e2517d3f60e01b81526001600160a01b0382166004820152602481018390526044016108bc565b611a627f0000000000000000000000000000000000000000000000000000000000000000853085611d69565b611a6c83826117ca565b826001600160a01b0316846001600160a01b03167fdcbc1c05240f31ff3ad067ef1ee35ce4997762752e3a095284754544f4c709d7848460405161190f929190918252602082015260400190565b5f6002826003811115611acf57611acf612220565b611ad99190612234565b60ff166001149050919050565b5f805f611af38686611da2565b91509150815f03611b1757838181611b0d57611b0d6120ea565b04925050506109e2565b818411611b2e57611b2e6003851502601118611dbe565b5f848688095f868103871696879004966002600389028118808a02820302808a02820302808a02820302808a02820302808a02820302808a02909103029181900381900460010185841190960395909502919093039390930492909217029150509392505050565b826001600160a01b0316856001600160a01b031614611bba57611bba838683611577565b611bc483826114d6565b611bef7f0000000000000000000000000000000000000000000000000000000000000000858461150e565b826001600160a01b0316846001600160a01b0316866001600160a01b03167ffbde797d201c681b91056529119e0b02407c7bb96a4a2c75c01fc9667232c8db8585604051611c47929190918252602082015260400190565b60405180910390a45050505050565b6001600160a01b038316611c80578060025f828254611c7591906120a8565b90915550611cdd9050565b6001600160a01b0383165f9081526020819052604090205481811015611cbf5783818360405163391434e360e21b81526004016108bc939291906121ff565b6001600160a01b0384165f9081526020819052604090209082900390555b6001600160a01b038216611cf957600280548290039055611d17565b6001600160a01b0382165f9081526020819052604090208054820190555b816001600160a01b0316836001600160a01b03167fddf252ad1be2c89b69c2b068fc378daa952ba7f163c4a11628f55a4df523b3ef83604051611d5c91815260200190565b60405180910390a3505050565b6040516001600160a01b038481166024830152838116604483015260648201839052610a979186918216906323b872dd9060840161153b565b5f805f1983850993909202808410938190039390930393915050565b634e487b715f52806020526024601cfd5b80356001600160a01b0381168114611de5575f80fd5b919050565b5f60208284031215611dfa575f80fd5b6109e282611dcf565b5f60208284031215611e13575f80fd5b81356001600160e01b0319811681146109e2575f80fd5b5f602080835283518060208501525f5b81811015611e5657858101830151858201604001528201611e3a565b505f604082860101526040601f19601f8301168501019250505092915050565b5f60208284031215611e86575f80fd5b5035919050565b5f8060408385031215611e9e575f80fd5b611ea783611dcf565b946020939093013593505050565b5f8060408385031215611ec6575f80fd5b50508035926020909101359150565b5f805f60608486031215611ee7575f80fd5b611ef084611dcf565b9250611efe60208501611dcf565b9150604084013590509250925092565b5f8060408385031215611f1f575f80fd5b82359150611f2f60208401611dcf565b90509250929050565b5f805f60608486031215611f4a575f80fd5b83359250611f5a60208501611dcf565b9150611f6860408501611dcf565b90509250925092565b5f805f8060608587031215611f84575f80fd5b611f8d85611dcf565b935060208501359250604085013567ffffffffffffffff80821115611fb0575f80fd5b818701915087601f830112611fc3575f80fd5b813581811115611fd1575f80fd5b886020828501011115611fe2575f80fd5b95989497505060200194505050565b5f8060408385031215612002575f80fd5b61200b83611dcf565b9150611f2f60208401611dcf565b5f60208284031215612029575f80fd5b5051919050565b600181811c9082168061204457607f821691505b60208210810361206257634e487b7160e01b5f52602260045260245ffd5b50919050565b634e487b7160e01b5f52601160045260245ffd5b818103818111156107a8576107a8612068565b60ff81811683821601908111156107a8576107a8612068565b808201808211156107a8576107a8612068565b5f600182016120cc576120cc612068565b5060010190565b80820281158282048414176107a8576107a8612068565b634e487b7160e01b5f52601260045260245ffd5b5f8261210c5761210c6120ea565b500490565b600181815b8085111561214b57815f190482111561213157612131612068565b8085161561213e57918102915b93841c9390800290612116565b509250929050565b5f82612161575060016107a8565b8161216d57505f6107a8565b8160018114612183576002811461218d576121a9565b60019150506107a8565b60ff84111561219e5761219e612068565b50506001821b6107a8565b5060208310610133831016604e8410600b84101617156121cc575081810a6107a8565b6121d68383612111565b805f19048211156121e9576121e9612068565b029392505050565b5f6109e260ff841683612153565b6001600160a01b039390931683526020830191909152604082015260600190565b634e487b7160e01b5f52602160045260245ffd5b5f60ff831680612246576122466120ea565b8060ff8416069150509291505056fea264697066735822122083ed90494348d0506c7a02179e5797c8ca916dac372486d6488ca83fa05166f964736f6c63430008180033","linkReferences":{}},"methodIdentifiers":{"ADMIN_ROLE()":"75b238fc","DEFAULT_ADMIN_ROLE()":"a217fddf","allowance(address,address)":"dd62ed3e","approve(address,uint256)":"095ea7b3","asset()":"38d52e0f","balanceOf(address)":"70a08231","claimableRedeemRequest(address)":"0088d3e5","convertToAssets(uint256)":"07a2d13a","convertToShares(uint256)":"c6e6f592","decimals()":"313ce567","deposit(uint256,address)":"6e553f65","earlyWithdraw()":"15d74bb3","getRoleAdmin(bytes32)":"248a9ca3","globalDepositCap()":"7fd34797","grantRole(bytes32,address)":"2f2ff15d","hasRole(bytes32,address)":"91d14854","lockDuration()":"04554443","maxDeposit(address)":"402d267d","maxMint(address)":"c63d75b6","maxRedeem(address)":"d905777e","maxWithdraw(address)":"ce96cb77","mint(uint256,address)":"94bf804d","name()":"06fdde03","onTokenTransfer(address,uint256,bytes)":"a4c0ed36","paused()":"5c975abb","pendingRedeemRequest(address)":"53dc1dd3","previewDeposit(uint256)":"ef8b30f7","previewMint(uint256)":"b3d7f6b9","previewRedeem(uint256)":"4cdad506","previewWithdraw(uint256)":"0a28a477","pullYield()":"27774852","redeem(uint256,address,address)":"ba087652","redeemRequests(address)":"8d158c2a","renounceRole(bytes32,address)":"36568abe","requestRedeem(uint256,address,address)":"7d41c86e","revokeRole(bytes32,address)":"d547741f","setCaps(uint256,uint256)":"212bf316","setYieldStream(address)":"dd99dde9","supportsInterface(bytes4)":"01ffc9a7","symbol()":"95d89b41","totalAssets()":"01e1d114","totalSupply()":"18160ddd","transfer(address,uint256)":"a9059cbb","transferFrom(address,address,uint256)":"23b872dd","userDepositCap()":"a8a9c260","userInfos(address)":"43b0215f","withdraw(uint256,address,address)":"b460af94","yieldStream()":"c9f8aff1"},"id":40}